{
  "contractName": "Auth",
  "abi": [
    {
      "inputs": [],
      "name": "failedLoginAttempts",
      "outputs": [
        {
          "internalType": "uint256",
          "name": "",
          "type": "uint256"
        }
      ],
      "stateMutability": "view",
      "type": "function",
      "constant": true
    },
    {
      "inputs": [],
      "name": "lastFailedLoginAttempt",
      "outputs": [
        {
          "internalType": "uint256",
          "name": "",
          "type": "uint256"
        }
      ],
      "stateMutability": "view",
      "type": "function",
      "constant": true
    },
    {
      "inputs": [
        {
          "internalType": "address",
          "name": "",
          "type": "address"
        },
        {
          "internalType": "uint256",
          "name": "",
          "type": "uint256"
        }
      ],
      "name": "loginAttempts",
      "outputs": [
        {
          "internalType": "string",
          "name": "",
          "type": "string"
        }
      ],
      "stateMutability": "view",
      "type": "function",
      "constant": true
    },
    {
      "inputs": [],
      "name": "systemActive",
      "outputs": [
        {
          "internalType": "bool",
          "name": "",
          "type": "bool"
        }
      ],
      "stateMutability": "view",
      "type": "function",
      "constant": true
    },
    {
      "inputs": [
        {
          "internalType": "address",
          "name": "",
          "type": "address"
        }
      ],
      "name": "users",
      "outputs": [
        {
          "internalType": "address",
          "name": "userAddress",
          "type": "address"
        },
        {
          "internalType": "string",
          "name": "device",
          "type": "string"
        },
        {
          "internalType": "string",
          "name": "ip",
          "type": "string"
        }
      ],
      "stateMutability": "view",
      "type": "function",
      "constant": true
    },
    {
      "inputs": [
        {
          "internalType": "address",
          "name": "_address",
          "type": "address"
        },
        {
          "internalType": "string",
          "name": "_device",
          "type": "string"
        },
        {
          "internalType": "string",
          "name": "_ip",
          "type": "string"
        }
      ],
      "name": "register",
      "outputs": [],
      "stateMutability": "nonpayable",
      "type": "function"
    },
    {
      "inputs": [
        {
          "internalType": "address",
          "name": "_address",
          "type": "address"
        },
        {
          "internalType": "string",
          "name": "_ip",
          "type": "string"
        }
      ],
      "name": "login",
      "outputs": [
        {
          "internalType": "bool",
          "name": "",
          "type": "bool"
        }
      ],
      "stateMutability": "nonpayable",
      "type": "function"
    },
    {
      "inputs": [
        {
          "internalType": "address",
          "name": "_address",
          "type": "address"
        }
      ],
      "name": "logout",
      "outputs": [],
      "stateMutability": "nonpayable",
      "type": "function"
    }
  ],
  "bytecode": "0x60806040526001600260006101000a81548160ff02191690831515021790555034801561002b57600080fd5b506110db8061003b6000396000f3fe608060405234801561001057600080fd5b50600436106100885760003560e01c8063a87430ba1161005b578063a87430ba14610115578063ac57b98b14610147578063c3b46f3e14610177578063cc51f9b91461019557610088565b80630ccbe1b11461008d5780632f19d50b146100ab5780633431d5c9146100db5780638d59cc02146100f9575b600080fd5b6100956101b1565b6040516100a29190610a9e565b60405180910390f35b6100c560048036038101906100c09190610c71565b6101b7565b6040516100d29190610ce8565b60405180910390f35b6100e36105eb565b6040516100f09190610ce8565b60405180910390f35b610113600480360381019061010e9190610d03565b6105fe565b005b61012f600480360381019061012a9190610d8e565b6106fd565b60405161013e93929190610e52565b60405180910390f35b610161600480360381019061015c9190610ec3565b610857565b60405161016e9190610f03565b60405180910390f35b61017f610910565b60405161018c9190610a9e565b60405180910390f35b6101af60048036038101906101aa9190610d8e565b610916565b005b60035481565b6000600260009054906101000a900460ff166101d657600090506105e5565b6000600160008573ffffffffffffffffffffffffffffffffffffffff1673ffffffffffffffffffffffffffffffffffffffff1681526020019081526020016000206040518060600160405290816000820160009054906101000a900473ffffffffffffffffffffffffffffffffffffffff1673ffffffffffffffffffffffffffffffffffffffff1673ffffffffffffffffffffffffffffffffffffffff16815260200160018201805461028890610f54565b80601f01602080910402602001604051908101604052809291908181526020018280546102b490610f54565b80156103015780601f106102d657610100808354040283529160200191610301565b820191906000526020600020905b8154815290600101906020018083116102e457829003601f168201915b5050505050815260200160028201805461031a90610f54565b80601f016020809104026020016040519081016040528092919081815260200182805461034690610f54565b80156103935780601f1061036857610100808354040283529160200191610393565b820191906000526020600020905b81548152906001019060200180831161037657829003601f168201915b5050505050815250509050826040516020016103af9190610fc1565b6040516020818303038152906040528051906020012081604001516040516020016103da9190610fc1565b60405160208183030381529060405280519060200120146104fa576004600081548092919061040890611007565b91905055506000808573ffffffffffffffffffffffffffffffffffffffff1673ffffffffffffffffffffffffffffffffffffffff16815260200190815260200160002080600181540180825580915050600190039060005260206000200160006040518060400160405280601481526020017f4661696c6564206c6f67696e20617474656d7074000000000000000000000000815250909190915090805190602001906104b69291906109a2565b506002600454106104f0576000600260006101000a81548160ff0219169083151502179055506078426104e9919061104f565b6003819055505b60009150506105e5565b60006004819055506000808573ffffffffffffffffffffffffffffffffffffffff1673ffffffffffffffffffffffffffffffffffffffff16815260200190815260200160002080600181540180825580915050600190039060005260206000200160006040518060400160405280601881526020017f5375636365737366756c206c6f67696e20617474656d70740000000000000000815250909190915090805190602001906105ab9291906109a2565b50600073ffffffffffffffffffffffffffffffffffffffff16816000015173ffffffffffffffffffffffffffffffffffffffff1614159150505b92915050565b600260009054906101000a900460ff1681565b600060405180606001604052808573ffffffffffffffffffffffffffffffffffffffff16815260200184815260200183815250905080600160008673ffffffffffffffffffffffffffffffffffffffff1673ffffffffffffffffffffffffffffffffffffffff16815260200190815260200160002060008201518160000160006101000a81548173ffffffffffffffffffffffffffffffffffffffff021916908373ffffffffffffffffffffffffffffffffffffffff16021790555060208201518160010190805190602001906106d69291906109a2565b5060408201518160020190805190602001906106f39291906109a2565b5090505050505050565b60016020528060005260406000206000915090508060000160009054906101000a900473ffffffffffffffffffffffffffffffffffffffff169080600101805461074690610f54565b80601f016020809104026020016040519081016040528092919081815260200182805461077290610f54565b80156107bf5780601f10610794576101008083540402835291602001916107bf565b820191906000526020600020905b8154815290600101906020018083116107a257829003601f168201915b5050505050908060020180546107d490610f54565b80601f016020809104026020016040519081016040528092919081815260200182805461080090610f54565b801561084d5780601f106108225761010080835404028352916020019161084d565b820191906000526020600020905b81548152906001019060200180831161083057829003601f168201915b5050505050905083565b6000602052816000526040600020818154811061087357600080fd5b9060005260206000200160009150915050805461088f90610f54565b80601f01602080910402602001604051908101604052809291908181526020018280546108bb90610f54565b80156109085780601f106108dd57610100808354040283529160200191610908565b820191906000526020600020905b8154815290600101906020018083116108eb57829003601f168201915b505050505081565b60045481565b600160008273ffffffffffffffffffffffffffffffffffffffff1673ffffffffffffffffffffffffffffffffffffffff168152602001908152602001600020600080820160006101000a81549073ffffffffffffffffffffffffffffffffffffffff021916905560018201600061098d9190610a28565b60028201600061099d9190610a28565b505050565b8280546109ae90610f54565b90600052602060002090601f0160209004810192826109d05760008555610a17565b82601f106109e957805160ff1916838001178555610a17565b82800160010185558215610a17579182015b82811115610a165782518255916020019190600101906109fb565b5b509050610a249190610a68565b5090565b508054610a3490610f54565b6000825580601f10610a465750610a65565b601f016020900490600052602060002090810190610a649190610a68565b5b50565b5b80821115610a81576000816000905550600101610a69565b5090565b6000819050919050565b610a9881610a85565b82525050565b6000602082019050610ab36000830184610a8f565b92915050565b6000604051905090565b600080fd5b600080fd5b600073ffffffffffffffffffffffffffffffffffffffff82169050919050565b6000610af882610acd565b9050919050565b610b0881610aed565b8114610b1357600080fd5b50565b600081359050610b2581610aff565b92915050565b600080fd5b600080fd5b6000601f19601f8301169050919050565b7f4e487b7100000000000000000000000000000000000000000000000000000000600052604160045260246000fd5b610b7e82610b35565b810181811067ffffffffffffffff82111715610b9d57610b9c610b46565b5b80604052505050565b6000610bb0610ab9565b9050610bbc8282610b75565b919050565b600067ffffffffffffffff821115610bdc57610bdb610b46565b5b610be582610b35565b9050602081019050919050565b82818337600083830152505050565b6000610c14610c0f84610bc1565b610ba6565b905082815260208101848484011115610c3057610c2f610b30565b5b610c3b848285610bf2565b509392505050565b600082601f830112610c5857610c57610b2b565b5b8135610c68848260208601610c01565b91505092915050565b60008060408385031215610c8857610c87610ac3565b5b6000610c9685828601610b16565b925050602083013567ffffffffffffffff811115610cb757610cb6610ac8565b5b610cc385828601610c43565b9150509250929050565b60008115159050919050565b610ce281610ccd565b82525050565b6000602082019050610cfd6000830184610cd9565b92915050565b600080600060608486031215610d1c57610d1b610ac3565b5b6000610d2a86828701610b16565b935050602084013567ffffffffffffffff811115610d4b57610d4a610ac8565b5b610d5786828701610c43565b925050604084013567ffffffffffffffff811115610d7857610d77610ac8565b5b610d8486828701610c43565b9150509250925092565b600060208284031215610da457610da3610ac3565b5b6000610db284828501610b16565b91505092915050565b610dc481610aed565b82525050565b600081519050919050565b600082825260208201905092915050565b60005b83811015610e04578082015181840152602081019050610de9565b83811115610e13576000848401525b50505050565b6000610e2482610dca565b610e2e8185610dd5565b9350610e3e818560208601610de6565b610e4781610b35565b840191505092915050565b6000606082019050610e676000830186610dbb565b8181036020830152610e798185610e19565b90508181036040830152610e8d8184610e19565b9050949350505050565b610ea081610a85565b8114610eab57600080fd5b50565b600081359050610ebd81610e97565b92915050565b60008060408385031215610eda57610ed9610ac3565b5b6000610ee885828601610b16565b9250506020610ef985828601610eae565b9150509250929050565b60006020820190508181036000830152610f1d8184610e19565b905092915050565b7f4e487b7100000000000000000000000000000000000000000000000000000000600052602260045260246000fd5b60006002820490506001821680610f6c57607f821691505b602082108103610f7f57610f7e610f25565b5b50919050565b600081905092915050565b6000610f9b82610dca565b610fa58185610f85565b9350610fb5818560208601610de6565b80840191505092915050565b6000610fcd8284610f90565b915081905092915050565b7f4e487b7100000000000000000000000000000000000000000000000000000000600052601160045260246000fd5b600061101282610a85565b91507fffffffffffffffffffffffffffffffffffffffffffffffffffffffffffffffff820361104457611043610fd8565b5b600182019050919050565b600061105a82610a85565b915061106583610a85565b9250827fffffffffffffffffffffffffffffffffffffffffffffffffffffffffffffffff0382111561109a57611099610fd8565b5b82820190509291505056fea26469706673582212203209f55c15e5ed11fbae2e9d96f5c3a11a5166d0e2a9bbedfada1caabc7334f164736f6c634300080d0033",
  "immutableReferences": {},
  "source": "// SPDX-License-Identifier: MIT\r\n// Tells the Solidity compiler to compile only from v0.8.13 to v0.9.0\r\npragma solidity ^0.8.13;\r\n\r\ncontract Auth {\r\n    struct User {\r\n        address userAddress;\r\n        string device;\r\n        string ip;\r\n    }\r\n\r\n    mapping(address => string[]) public loginAttempts;\r\n    mapping(address => User) public users;\r\n    bool public systemActive = true;\r\n    \r\n    function register(address _address, string memory _device, string memory _ip) public {\r\n        User memory newUser = User(_address, _device, _ip);\r\n        users[_address] = newUser;\r\n    }\r\n\r\n    uint256 public lastFailedLoginAttempt;\r\n    uint256 public failedLoginAttempts;\r\n    \r\n    function login(address _address, string memory _ip) public returns (bool) {\r\n        if (!systemActive) {\r\n            return false;\r\n        }\r\n        User memory user = users[_address];\r\n        if (keccak256(abi.encodePacked(user.ip)) != keccak256(abi.encodePacked(_ip))) {\r\n            failedLoginAttempts++;\r\n            loginAttempts[_address].push(\"Failed login attempt\");\r\n            if (failedLoginAttempts >= 2) {\r\n                systemActive = false;\r\n                lastFailedLoginAttempt = block.timestamp + 2 minutes;\r\n            }\r\n            return false;\r\n        }\r\n        failedLoginAttempts = 0;\r\n        loginAttempts[_address].push(\"Successful login attempt\");\r\n        return user.userAddress != address(0);\r\n    }\r\n\r\n    function logout(address _address) public {\r\n        delete users[_address];\r\n    }\r\n}\r\n",
  "sourcePath": "C:\\Users\\emman\\Documents\\Projects\\Veera\\gitcode\\veera\\contracts\\Auth.sol",
  "compiler": {
    "name": "solc",
    "version": "0.8.13+commit.abaa5c0e.Emscripten.clang"
  },
  "schemaVersion": "3.4.15",
  "updatedAt": "2023-08-24T12:30:27.294Z",
  "networkType": "ethereum",
  "devdoc": {
    "kind": "dev",
    "methods": {},
    "version": 1
  },
  "userdoc": {
    "kind": "user",
    "methods": {},
    "version": 1
  }
}